{
  "_format": "hh-sol-artifact-1",
  "contractName": "NFTMarketplace",
  "sourceName": "contracts/NFTMarketplace.sol",
  "abi": [
    {
      "inputs": [],
      "stateMutability": "nonpayable",
      "type": "constructor"
    },
    {
      "anonymous": false,
      "inputs": [
        {
          "indexed": true,
          "internalType": "address",
          "name": "owner",
          "type": "address"
        },
        {
          "indexed": true,
          "internalType": "address",
          "name": "approved",
          "type": "address"
        },
        {
          "indexed": true,
          "internalType": "uint256",
          "name": "tokenId",
          "type": "uint256"
        }
      ],
      "name": "Approval",
      "type": "event"
    },
    {
      "anonymous": false,
      "inputs": [
        {
          "indexed": true,
          "internalType": "address",
          "name": "owner",
          "type": "address"
        },
        {
          "indexed": true,
          "internalType": "address",
          "name": "operator",
          "type": "address"
        },
        {
          "indexed": false,
          "internalType": "bool",
          "name": "approved",
          "type": "bool"
        }
      ],
      "name": "ApprovalForAll",
      "type": "event"
    },
    {
      "anonymous": false,
      "inputs": [
        {
          "indexed": true,
          "internalType": "uint256",
          "name": "tokenId",
          "type": "uint256"
        },
        {
          "indexed": false,
          "internalType": "address",
          "name": "seller",
          "type": "address"
        },
        {
          "indexed": false,
          "internalType": "address",
          "name": "owner",
          "type": "address"
        },
        {
          "indexed": false,
          "internalType": "uint256",
          "name": "price",
          "type": "uint256"
        },
        {
          "indexed": false,
          "internalType": "bool",
          "name": "sold",
          "type": "bool"
        }
      ],
      "name": "MarketItemCreated",
      "type": "event"
    },
    {
      "anonymous": false,
      "inputs": [
        {
          "indexed": true,
          "internalType": "address",
          "name": "from",
          "type": "address"
        },
        {
          "indexed": true,
          "internalType": "address",
          "name": "to",
          "type": "address"
        },
        {
          "indexed": true,
          "internalType": "uint256",
          "name": "tokenId",
          "type": "uint256"
        }
      ],
      "name": "Transfer",
      "type": "event"
    },
    {
      "inputs": [
        {
          "internalType": "address",
          "name": "to",
          "type": "address"
        },
        {
          "internalType": "uint256",
          "name": "tokenId",
          "type": "uint256"
        }
      ],
      "name": "approve",
      "outputs": [],
      "stateMutability": "nonpayable",
      "type": "function"
    },
    {
      "inputs": [
        {
          "internalType": "address",
          "name": "owner",
          "type": "address"
        }
      ],
      "name": "balanceOf",
      "outputs": [
        {
          "internalType": "uint256",
          "name": "",
          "type": "uint256"
        }
      ],
      "stateMutability": "view",
      "type": "function"
    },
    {
      "inputs": [
        {
          "internalType": "uint256",
          "name": "tokenId",
          "type": "uint256"
        }
      ],
      "name": "createMarketSale",
      "outputs": [],
      "stateMutability": "payable",
      "type": "function"
    },
    {
      "inputs": [
        {
          "internalType": "string",
          "name": "tokenURI",
          "type": "string"
        },
        {
          "internalType": "uint256",
          "name": "price",
          "type": "uint256"
        }
      ],
      "name": "createToken",
      "outputs": [
        {
          "internalType": "uint256",
          "name": "",
          "type": "uint256"
        }
      ],
      "stateMutability": "payable",
      "type": "function"
    },
    {
      "inputs": [
        {
          "internalType": "uint256",
          "name": "tokenId",
          "type": "uint256"
        }
      ],
      "name": "deleteToken",
      "outputs": [],
      "stateMutability": "payable",
      "type": "function"
    },
    {
      "inputs": [],
      "name": "fetchItemsListed",
      "outputs": [
        {
          "components": [
            {
              "internalType": "uint256",
              "name": "tokenId",
              "type": "uint256"
            },
            {
              "internalType": "address payable",
              "name": "seller",
              "type": "address"
            },
            {
              "internalType": "address payable",
              "name": "owner",
              "type": "address"
            },
            {
              "internalType": "uint256",
              "name": "price",
              "type": "uint256"
            },
            {
              "internalType": "bool",
              "name": "sold",
              "type": "bool"
            }
          ],
          "internalType": "struct NFTMarketplace.MarketItem[]",
          "name": "",
          "type": "tuple[]"
        }
      ],
      "stateMutability": "view",
      "type": "function"
    },
    {
      "inputs": [],
      "name": "fetchMarketItems",
      "outputs": [
        {
          "components": [
            {
              "internalType": "uint256",
              "name": "tokenId",
              "type": "uint256"
            },
            {
              "internalType": "address payable",
              "name": "seller",
              "type": "address"
            },
            {
              "internalType": "address payable",
              "name": "owner",
              "type": "address"
            },
            {
              "internalType": "uint256",
              "name": "price",
              "type": "uint256"
            },
            {
              "internalType": "bool",
              "name": "sold",
              "type": "bool"
            }
          ],
          "internalType": "struct NFTMarketplace.MarketItem[]",
          "name": "",
          "type": "tuple[]"
        }
      ],
      "stateMutability": "view",
      "type": "function"
    },
    {
      "inputs": [],
      "name": "fetchMyNFTs",
      "outputs": [
        {
          "components": [
            {
              "internalType": "uint256",
              "name": "tokenId",
              "type": "uint256"
            },
            {
              "internalType": "address payable",
              "name": "seller",
              "type": "address"
            },
            {
              "internalType": "address payable",
              "name": "owner",
              "type": "address"
            },
            {
              "internalType": "uint256",
              "name": "price",
              "type": "uint256"
            },
            {
              "internalType": "bool",
              "name": "sold",
              "type": "bool"
            }
          ],
          "internalType": "struct NFTMarketplace.MarketItem[]",
          "name": "",
          "type": "tuple[]"
        }
      ],
      "stateMutability": "view",
      "type": "function"
    },
    {
      "inputs": [
        {
          "internalType": "uint256",
          "name": "tokenId",
          "type": "uint256"
        }
      ],
      "name": "getApproved",
      "outputs": [
        {
          "internalType": "address",
          "name": "",
          "type": "address"
        }
      ],
      "stateMutability": "view",
      "type": "function"
    },
    {
      "inputs": [],
      "name": "getListingPrice",
      "outputs": [
        {
          "internalType": "uint256",
          "name": "",
          "type": "uint256"
        }
      ],
      "stateMutability": "view",
      "type": "function"
    },
    {
      "inputs": [
        {
          "internalType": "address",
          "name": "owner",
          "type": "address"
        },
        {
          "internalType": "address",
          "name": "operator",
          "type": "address"
        }
      ],
      "name": "isApprovedForAll",
      "outputs": [
        {
          "internalType": "bool",
          "name": "",
          "type": "bool"
        }
      ],
      "stateMutability": "view",
      "type": "function"
    },
    {
      "inputs": [],
      "name": "name",
      "outputs": [
        {
          "internalType": "string",
          "name": "",
          "type": "string"
        }
      ],
      "stateMutability": "view",
      "type": "function"
    },
    {
      "inputs": [
        {
          "internalType": "uint256",
          "name": "tokenId",
          "type": "uint256"
        }
      ],
      "name": "ownerOf",
      "outputs": [
        {
          "internalType": "address",
          "name": "",
          "type": "address"
        }
      ],
      "stateMutability": "view",
      "type": "function"
    },
    {
      "inputs": [
        {
          "internalType": "uint256",
          "name": "tokenId",
          "type": "uint256"
        },
        {
          "internalType": "uint256",
          "name": "price",
          "type": "uint256"
        }
      ],
      "name": "resellToken",
      "outputs": [],
      "stateMutability": "payable",
      "type": "function"
    },
    {
      "inputs": [
        {
          "internalType": "address",
          "name": "from",
          "type": "address"
        },
        {
          "internalType": "address",
          "name": "to",
          "type": "address"
        },
        {
          "internalType": "uint256",
          "name": "tokenId",
          "type": "uint256"
        }
      ],
      "name": "safeTransferFrom",
      "outputs": [],
      "stateMutability": "nonpayable",
      "type": "function"
    },
    {
      "inputs": [
        {
          "internalType": "address",
          "name": "from",
          "type": "address"
        },
        {
          "internalType": "address",
          "name": "to",
          "type": "address"
        },
        {
          "internalType": "uint256",
          "name": "tokenId",
          "type": "uint256"
        },
        {
          "internalType": "bytes",
          "name": "_data",
          "type": "bytes"
        }
      ],
      "name": "safeTransferFrom",
      "outputs": [],
      "stateMutability": "nonpayable",
      "type": "function"
    },
    {
      "inputs": [
        {
          "internalType": "address",
          "name": "operator",
          "type": "address"
        },
        {
          "internalType": "bool",
          "name": "approved",
          "type": "bool"
        }
      ],
      "name": "setApprovalForAll",
      "outputs": [],
      "stateMutability": "nonpayable",
      "type": "function"
    },
    {
      "inputs": [
        {
          "internalType": "bytes4",
          "name": "interfaceId",
          "type": "bytes4"
        }
      ],
      "name": "supportsInterface",
      "outputs": [
        {
          "internalType": "bool",
          "name": "",
          "type": "bool"
        }
      ],
      "stateMutability": "view",
      "type": "function"
    },
    {
      "inputs": [],
      "name": "symbol",
      "outputs": [
        {
          "internalType": "string",
          "name": "",
          "type": "string"
        }
      ],
      "stateMutability": "view",
      "type": "function"
    },
    {
      "inputs": [
        {
          "internalType": "uint256",
          "name": "tokenId",
          "type": "uint256"
        }
      ],
      "name": "tokenURI",
      "outputs": [
        {
          "internalType": "string",
          "name": "",
          "type": "string"
        }
      ],
      "stateMutability": "view",
      "type": "function"
    },
    {
      "inputs": [
        {
          "internalType": "address",
          "name": "from",
          "type": "address"
        },
        {
          "internalType": "address",
          "name": "to",
          "type": "address"
        },
        {
          "internalType": "uint256",
          "name": "tokenId",
          "type": "uint256"
        }
      ],
      "name": "transferFrom",
      "outputs": [],
      "stateMutability": "nonpayable",
      "type": "function"
    },
    {
      "inputs": [
        {
          "internalType": "uint256",
          "name": "_listingPrice",
          "type": "uint256"
        }
      ],
      "name": "updateListingPrice",
      "outputs": [],
      "stateMutability": "payable",
      "type": "function"
    }
  ],
  "bytecode": "0x60806040526658d15e176280006009553480156200001c57600080fd5b50604080518082018252600a8152694577617374654974656d60b01b60208083019182528351808501909452600384526245574960e81b9084015281519192916200006a916000916200009b565b508051620000809060019060208401906200009b565b5050600a80546001600160a01b03191633179055506200017e565b828054620000a99062000141565b90600052602060002090601f016020900481019282620000cd576000855562000118565b82601f10620000e857805160ff191683800117855562000118565b8280016001018555821562000118579182015b8281111562000118578251825591602001919060010190620000fb565b50620001269291506200012a565b5090565b5b808211156200012657600081556001016200012b565b600181811c908216806200015657607f821691505b602082108114156200017857634e487b7160e01b600052602260045260246000fd5b50919050565b612395806200018e6000396000f3fe6080604052600436106101355760003560e01c80636352211e116100ab578063ae677aa31161006f578063ae677aa314610331578063b88d4fde14610344578063be9af53614610364578063c87b56dd14610377578063e219fc7514610397578063e985e9c5146103aa57600080fd5b80636352211e146102a957806370a08231146102c957806372b3b620146102e957806395d89b41146102fc578063a22cb4651461031157600080fd5b806312e85585116100fd57806312e855851461020d578063202e37401461022c57806323b872dd1461024157806342842e0e1461026157806345f8fa80146102815780636297c16c1461029657600080fd5b806301ffc9a71461013a57806306fdde031461016f578063081812fc14610191578063095ea7b3146101c95780630f08efe0146101eb575b600080fd5b34801561014657600080fd5b5061015a610155366004611f59565b6103f3565b60405190151581526020015b60405180910390f35b34801561017b57600080fd5b50610184610445565b6040516101669190612134565b34801561019d57600080fd5b506101b16101ac366004611fe7565b6104d7565b6040516001600160a01b039091168152602001610166565b3480156101d557600080fd5b506101e96101e4366004611f30565b610564565b005b3480156101f757600080fd5b5061020061067a565b60405161016691906120b8565b34801561021957600080fd5b506009545b604051908152602001610166565b34801561023857600080fd5b5061020061082e565b34801561024d57600080fd5b506101e961025c366004611e42565b610a20565b34801561026d57600080fd5b506101e961027c366004611e42565b610a51565b34801561028d57600080fd5b50610200610a6c565b6101e96102a4366004611fe7565b610c5e565b3480156102b557600080fd5b506101b16102c4366004611fe7565b610c6e565b3480156102d557600080fd5b5061021e6102e4366004611df6565b610ce5565b61021e6102f7366004611f91565b610d6c565b34801561030857600080fd5b50610184610dae565b34801561031d57600080fd5b506101e961032c366004611ef6565b610dbd565b6101e961033f366004611fe7565b610dcc565b34801561035057600080fd5b506101e961035f366004611e7d565b610e44565b6101e9610372366004611fe7565b610e7c565b34801561038357600080fd5b50610184610392366004611fe7565b610fe1565b6101e96103a5366004611fff565b611158565b3480156103b657600080fd5b5061015a6103c5366004611e10565b6001600160a01b03918216600090815260056020908152604080832093909416825291909152205460ff1690565b60006001600160e01b031982166380ac58cd60e01b148061042457506001600160e01b03198216635b5e139f60e01b145b8061043f57506301ffc9a760e01b6001600160e01b03198316145b92915050565b6060600080546104549061229d565b80601f01602080910402602001604051908101604052809291908181526020018280546104809061229d565b80156104cd5780601f106104a2576101008083540402835291602001916104cd565b820191906000526020600020905b8154815290600101906020018083116104b057829003601f168201915b5050505050905090565b60006104e282611250565b6105485760405162461bcd60e51b815260206004820152602c60248201527f4552433732313a20617070726f76656420717565727920666f72206e6f6e657860448201526b34b9ba32b73a103a37b5b2b760a11b60648201526084015b60405180910390fd5b506000908152600460205260409020546001600160a01b031690565b600061056f82610c6e565b9050806001600160a01b0316836001600160a01b031614156105dd5760405162461bcd60e51b815260206004820152602160248201527f4552433732313a20617070726f76616c20746f2063757272656e74206f776e656044820152603960f91b606482015260840161053f565b336001600160a01b03821614806105f957506105f981336103c5565b61066b5760405162461bcd60e51b815260206004820152603860248201527f4552433732313a20617070726f76652063616c6c6572206973206e6f74206f7760448201527f6e6572206e6f7220617070726f76656420666f7220616c6c0000000000000000606482015260840161053f565b610675838361126d565b505050565b6060600061068760075490565b9050600061069460085490565b6007546106a1919061225a565b90506000808267ffffffffffffffff8111156106cd57634e487b7160e01b600052604160045260246000fd5b60405190808252806020026020018201604052801561072657816020015b6040805160a0810182526000808252602080830182905292820181905260608201819052608082015282526000199092019101816106eb5790505b50905060005b848110156108255730600b600061074484600161222e565b81526020810191909152604001600020600201546001600160a01b0316141561081357600061077482600161222e565b6000818152600b6020908152604091829020825160a0810184528154815260018201546001600160a01b039081169382019390935260028201549092169282019290925260038201546060820152600482015460ff1615156080820152855192935090918590879081106107f857634e487b7160e01b600052603260045260246000fd5b602090810291909101015261080e60018661222e565b945050505b8061081d816122d8565b91505061072c565b50949350505050565b6060600061083b60075490565b905060008060005b8381101561089e5733600b600061085b84600161222e565b81526020810191909152604001600020600201546001600160a01b0316141561088c5761088960018461222e565b92505b80610896816122d8565b915050610843565b5060008267ffffffffffffffff8111156108c857634e487b7160e01b600052604160045260246000fd5b60405190808252806020026020018201604052801561092157816020015b6040805160a0810182526000808252602080830182905292820181905260608201819052608082015282526000199092019101816108e65790505b50905060005b848110156108255733600b600061093f84600161222e565b81526020810191909152604001600020600201546001600160a01b03161415610a0e57600061096f82600161222e565b6000818152600b6020908152604091829020825160a0810184528154815260018201546001600160a01b039081169382019390935260028201549092169282019290925260038201546060820152600482015460ff1615156080820152855192935090918590879081106109f357634e487b7160e01b600052603260045260246000fd5b6020908102919091010152610a0960018661222e565b945050505b80610a18816122d8565b915050610927565b610a2a33826112db565b610a465760405162461bcd60e51b815260040161053f906121dd565b6106758383836113c4565b61067583838360405180602001604052806000815250610e44565b60606000610a7960075490565b905060008060005b83811015610adc5733600b6000610a9984600161222e565b81526020810191909152604001600020600101546001600160a01b03161415610aca57610ac760018461222e565b92505b80610ad4816122d8565b915050610a81565b5060008267ffffffffffffffff811115610b0657634e487b7160e01b600052604160045260246000fd5b604051908082528060200260200182016040528015610b5f57816020015b6040805160a081018252600080825260208083018290529282018190526060820181905260808201528252600019909201910181610b245790505b50905060005b848110156108255733600b6000610b7d84600161222e565b81526020810191909152604001600020600101546001600160a01b03161415610c4c576000610bad82600161222e565b6000818152600b6020908152604091829020825160a0810184528154815260018201546001600160a01b039081169382019390935260028201549092169282019290925260038201546060820152600482015460ff161515608082015285519293509091859087908110610c3157634e487b7160e01b600052603260045260246000fd5b6020908102919091010152610c4760018661222e565b945050505b80610c56816122d8565b915050610b65565b610c6b3361dead836113c4565b50565b6000818152600260205260408120546001600160a01b03168061043f5760405162461bcd60e51b815260206004820152602960248201527f4552433732313a206f776e657220717565727920666f72206e6f6e657869737460448201526832b73a103a37b5b2b760b91b606482015260840161053f565b60006001600160a01b038216610d505760405162461bcd60e51b815260206004820152602a60248201527f4552433732313a2062616c616e636520717565727920666f7220746865207a65604482015269726f206164647265737360b01b606482015260840161053f565b506001600160a01b031660009081526003602052604090205490565b6000610d7c600780546001019055565b6000610d8760075490565b9050610d933382611560565b610d9d8185611693565b610da7818461171e565b9392505050565b6060600180546104549061229d565b610dc8338383611874565b5050565b600a546001600160a01b03163314610e3f5760405162461bcd60e51b815260206004820152603060248201527f4f6e6c79206d61726b6574706c616365206f776e65722063616e20757064617460448201526f32903634b9ba34b73390383934b1b29760811b606482015260840161053f565b600955565b610e4e33836112db565b610e6a5760405162461bcd60e51b815260040161053f906121dd565b610e7684848484611943565b50505050565b6000818152600b6020526040902060038101546001909101546001600160a01b0316348214610f15576040805162461bcd60e51b81526020600482015260248101919091527f506c65617365207375626d6974207468652061736b696e67207072696365206960448201527f6e206f7264657220746f20636f6d706c65746520746865207075726368617365606482015260840161053f565b6000838152600b602052604090206002810180546001600160a01b0319908116331790915560048201805460ff1916600190811790915590910180549091169055610f64600880546001019055565b610f6f3033856113c4565b600a546009546040516001600160a01b039092169181156108fc0291906000818181858888f19350505050158015610fab573d6000803e3d6000fd5b506040516001600160a01b038216903480156108fc02916000818181858888f19350505050158015610e76573d6000803e3d6000fd5b6060610fec82611250565b6110525760405162461bcd60e51b815260206004820152603160248201527f45524337323155524953746f726167653a2055524920717565727920666f72206044820152703737b732bc34b9ba32b73a103a37b5b2b760791b606482015260840161053f565b6000828152600660205260408120805461106b9061229d565b80601f01602080910402602001604051908101604052809291908181526020018280546110979061229d565b80156110e45780601f106110b9576101008083540402835291602001916110e4565b820191906000526020600020905b8154815290600101906020018083116110c757829003601f168201915b50505050509050600061110260408051602081019091526000815290565b9050805160001415611115575092915050565b81511561114757808260405160200161112f92919061204c565b60405160208183030381529060405292505050919050565b61115084611976565b949350505050565b6000828152600b60205260409020600201546001600160a01b031633146111d45760405162461bcd60e51b815260206004820152602a60248201527f4f6e6c79206974656d206f776e65722063616e20706572666f726d20746869736044820152691037b832b930ba34b7b760b11b606482015260840161053f565b60095434146111f55760405162461bcd60e51b815260040161053f90612199565b6000828152600b6020526040902060048101805460ff19169055600381018290556001810180546001600160a01b0319908116331790915560029091018054909116301790556112456008611a4d565b610dc83330846113c4565b6000908152600260205260409020546001600160a01b0316151590565b600081815260046020526040902080546001600160a01b0319166001600160a01b03841690811790915581906112a282610c6e565b6001600160a01b03167f8c5be1e5ebec7d5bd14f71427d1e84f3dd0314c0f7b2291e5b200ac8c7c3b92560405160405180910390a45050565b60006112e682611250565b6113475760405162461bcd60e51b815260206004820152602c60248201527f4552433732313a206f70657261746f7220717565727920666f72206e6f6e657860448201526b34b9ba32b73a103a37b5b2b760a11b606482015260840161053f565b600061135283610c6e565b9050806001600160a01b0316846001600160a01b0316148061139957506001600160a01b0380821660009081526005602090815260408083209388168352929052205460ff165b806111505750836001600160a01b03166113b2846104d7565b6001600160a01b031614949350505050565b826001600160a01b03166113d782610c6e565b6001600160a01b03161461143b5760405162461bcd60e51b815260206004820152602560248201527f4552433732313a207472616e736665722066726f6d20696e636f72726563742060448201526437bbb732b960d91b606482015260840161053f565b6001600160a01b03821661149d5760405162461bcd60e51b8152602060048201526024808201527f4552433732313a207472616e7366657220746f20746865207a65726f206164646044820152637265737360e01b606482015260840161053f565b6114a860008261126d565b6001600160a01b03831660009081526003602052604081208054600192906114d190849061225a565b90915550506001600160a01b03821660009081526003602052604081208054600192906114ff90849061222e565b909155505060008181526002602052604080822080546001600160a01b0319166001600160a01b0386811691821790925591518493918716917fddf252ad1be2c89b69c2b068fc378daa952ba7f163c4a11628f55a4df523b3ef91a4505050565b6001600160a01b0382166115b65760405162461bcd60e51b815260206004820181905260248201527f4552433732313a206d696e7420746f20746865207a65726f2061646472657373604482015260640161053f565b6115bf81611250565b1561160c5760405162461bcd60e51b815260206004820152601c60248201527f4552433732313a20746f6b656e20616c7265616479206d696e74656400000000604482015260640161053f565b6001600160a01b038216600090815260036020526040812080546001929061163590849061222e565b909155505060008181526002602052604080822080546001600160a01b0319166001600160a01b03861690811790915590518392907fddf252ad1be2c89b69c2b068fc378daa952ba7f163c4a11628f55a4df523b3ef908290a45050565b61169c82611250565b6116ff5760405162461bcd60e51b815260206004820152602e60248201527f45524337323155524953746f726167653a2055524920736574206f66206e6f6e60448201526d32bc34b9ba32b73a103a37b5b2b760911b606482015260840161053f565b6000828152600660209081526040909120825161067592840190611ccb565b6000811161176e5760405162461bcd60e51b815260206004820152601c60248201527f5072696365206d757374206265206174206c6561737420312077656900000000604482015260640161053f565b600954341461178f5760405162461bcd60e51b815260040161053f90612199565b6040805160a08101825283815233602080830182815230848601818152606086018881526000608088018181528b8252600b909652979097209551865591516001860180546001600160a01b03199081166001600160a01b0393841617909155925160028701805490941691161790915593516003840155516004909201805460ff19169215159290921790915561182791846113c4565b604080513381523060208201529081018290526000606082015282907fb640004f1d14576d0c209e240cad0410e0d8c0c33a09375861fbadae2588a98d9060800160405180910390a25050565b816001600160a01b0316836001600160a01b031614156118d65760405162461bcd60e51b815260206004820152601960248201527f4552433732313a20617070726f766520746f2063616c6c657200000000000000604482015260640161053f565b6001600160a01b03838116600081815260056020908152604080832094871680845294825291829020805460ff191686151590811790915591519182527f17307eab39ab6107e8899845ad3d59bd9653f200f220920489ca2b5937696c31910160405180910390a3505050565b61194e8484846113c4565b61195a84848484611aa4565b610e765760405162461bcd60e51b815260040161053f90612147565b606061198182611250565b6119e55760405162461bcd60e51b815260206004820152602f60248201527f4552433732314d657461646174613a2055524920717565727920666f72206e6f60448201526e3732bc34b9ba32b73a103a37b5b2b760891b606482015260840161053f565b60006119fc60408051602081019091526000815290565b90506000815111611a1c5760405180602001604052806000815250610da7565b80611a2684611bb1565b604051602001611a3792919061204c565b6040516020818303038152906040529392505050565b805480611a9c5760405162461bcd60e51b815260206004820152601b60248201527f436f756e7465723a2064656372656d656e74206f766572666c6f770000000000604482015260640161053f565b600019019055565b60006001600160a01b0384163b15611ba657604051630a85bd0160e11b81526001600160a01b0385169063150b7a0290611ae890339089908890889060040161207b565b602060405180830381600087803b158015611b0257600080fd5b505af1925050508015611b32575060408051601f3d908101601f19168201909252611b2f91810190611f75565b60015b611b8c573d808015611b60576040519150601f19603f3d011682016040523d82523d6000602084013e611b65565b606091505b508051611b845760405162461bcd60e51b815260040161053f90612147565b805181602001fd5b6001600160e01b031916630a85bd0160e11b149050611150565b506001949350505050565b606081611bd55750506040805180820190915260018152600360fc1b602082015290565b8160005b8115611bff5780611be9816122d8565b9150611bf89050600a83612246565b9150611bd9565b60008167ffffffffffffffff811115611c2857634e487b7160e01b600052604160045260246000fd5b6040519080825280601f01601f191660200182016040528015611c52576020820181803683370190505b5090505b841561115057611c6760018361225a565b9150611c74600a866122f3565b611c7f90603061222e565b60f81b818381518110611ca257634e487b7160e01b600052603260045260246000fd5b60200101906001600160f81b031916908160001a905350611cc4600a86612246565b9450611c56565b828054611cd79061229d565b90600052602060002090601f016020900481019282611cf95760008555611d3f565b82601f10611d1257805160ff1916838001178555611d3f565b82800160010185558215611d3f579182015b82811115611d3f578251825591602001919060010190611d24565b50611d4b929150611d4f565b5090565b5b80821115611d4b5760008155600101611d50565b600067ffffffffffffffff80841115611d7f57611d7f612333565b604051601f8501601f19908116603f01168101908282118183101715611da757611da7612333565b81604052809350858152868686011115611dc057600080fd5b858560208301376000602087830101525050509392505050565b80356001600160a01b0381168114611df157600080fd5b919050565b600060208284031215611e07578081fd5b610da782611dda565b60008060408385031215611e22578081fd5b611e2b83611dda565b9150611e3960208401611dda565b90509250929050565b600080600060608486031215611e56578081fd5b611e5f84611dda565b9250611e6d60208501611dda565b9150604084013590509250925092565b60008060008060808587031215611e92578081fd5b611e9b85611dda565b9350611ea960208601611dda565b925060408501359150606085013567ffffffffffffffff811115611ecb578182fd5b8501601f81018713611edb578182fd5b611eea87823560208401611d64565b91505092959194509250565b60008060408385031215611f08578182fd5b611f1183611dda565b915060208301358015158114611f25578182fd5b809150509250929050565b60008060408385031215611f42578182fd5b611f4b83611dda565b946020939093013593505050565b600060208284031215611f6a578081fd5b8135610da781612349565b600060208284031215611f86578081fd5b8151610da781612349565b60008060408385031215611fa3578182fd5b823567ffffffffffffffff811115611fb9578283fd5b8301601f81018513611fc9578283fd5b611fd885823560208401611d64565b95602094909401359450505050565b600060208284031215611ff8578081fd5b5035919050565b60008060408385031215612011578182fd5b50508035926020909101359150565b60008151808452612038816020860160208601612271565b601f01601f19169290920160200192915050565b6000835161205e818460208801612271565b835190830190612072818360208801612271565b01949350505050565b6001600160a01b03858116825284166020820152604081018390526080606082018190526000906120ae90830184612020565b9695505050505050565b602080825282518282018190526000919060409081850190868401855b8281101561212757815180518552868101516001600160a01b03908116888701528682015116868601526060808201519086015260809081015115159085015260a090930192908501906001016120d5565b5091979650505050505050565b602081526000610da76020830184612020565b60208082526032908201527f4552433732313a207472616e7366657220746f206e6f6e20455243373231526560408201527131b2b4bb32b91034b6b83632b6b2b73a32b960711b606082015260800190565b60208082526024908201527f5072696365206d75737420626520657175616c20746f206c697374696e6720706040820152637269636560e01b606082015260800190565b60208082526031908201527f4552433732313a207472616e736665722063616c6c6572206973206e6f74206f6040820152701ddb995c881b9bdc88185c1c1c9bdd9959607a1b606082015260800190565b6000821982111561224157612241612307565b500190565b6000826122555761225561231d565b500490565b60008282101561226c5761226c612307565b500390565b60005b8381101561228c578181015183820152602001612274565b83811115610e765750506000910152565b600181811c908216806122b157607f821691505b602082108114156122d257634e487b7160e01b600052602260045260246000fd5b50919050565b60006000198214156122ec576122ec612307565b5060010190565b6000826123025761230261231d565b500690565b634e487b7160e01b600052601160045260246000fd5b634e487b7160e01b600052601260045260246000fd5b634e487b7160e01b600052604160045260246000fd5b6001600160e01b031981168114610c6b57600080fdfea2646970667358221220a5352930fa7dcd9933450740c4e8aaeb1c939b08f3052cc897ea9a79b3f9c65a64736f6c63430008040033",
  "linkReferences": {},
  "deployedLinkReferences": {}
}