{
  "_format": "hh-sol-artifact-1",
  "contractName": "NFTMarketplace",
  "sourceName": "contracts/NFTMarketplace.sol",
  "abi": [
    {
      "inputs": [],
      "stateMutability": "nonpayable",
      "type": "constructor"
    },
    {
      "anonymous": false,
      "inputs": [
        {
          "indexed": true,
          "internalType": "address",
          "name": "owner",
          "type": "address"
        },
        {
          "indexed": true,
          "internalType": "address",
          "name": "approved",
          "type": "address"
        },
        {
          "indexed": true,
          "internalType": "uint256",
          "name": "tokenId",
          "type": "uint256"
        }
      ],
      "name": "Approval",
      "type": "event"
    },
    {
      "anonymous": false,
      "inputs": [
        {
          "indexed": true,
          "internalType": "address",
          "name": "owner",
          "type": "address"
        },
        {
          "indexed": true,
          "internalType": "address",
          "name": "operator",
          "type": "address"
        },
        {
          "indexed": false,
          "internalType": "bool",
          "name": "approved",
          "type": "bool"
        }
      ],
      "name": "ApprovalForAll",
      "type": "event"
    },
    {
      "anonymous": false,
      "inputs": [
        {
          "indexed": true,
          "internalType": "uint256",
          "name": "tokenId",
          "type": "uint256"
        },
        {
          "indexed": false,
          "internalType": "address",
          "name": "seller",
          "type": "address"
        },
        {
          "indexed": false,
          "internalType": "address",
          "name": "owner",
          "type": "address"
        },
        {
          "indexed": false,
          "internalType": "uint256",
          "name": "price",
          "type": "uint256"
        },
        {
          "indexed": false,
          "internalType": "bool",
          "name": "sold",
          "type": "bool"
        }
      ],
      "name": "MarketItemCreated",
      "type": "event"
    },
    {
      "anonymous": false,
      "inputs": [
        {
          "indexed": true,
          "internalType": "address",
          "name": "from",
          "type": "address"
        },
        {
          "indexed": true,
          "internalType": "address",
          "name": "to",
          "type": "address"
        },
        {
          "indexed": true,
          "internalType": "uint256",
          "name": "tokenId",
          "type": "uint256"
        }
      ],
      "name": "Transfer",
      "type": "event"
    },
    {
      "inputs": [
        {
          "internalType": "address",
          "name": "to",
          "type": "address"
        },
        {
          "internalType": "uint256",
          "name": "tokenId",
          "type": "uint256"
        }
      ],
      "name": "approve",
      "outputs": [],
      "stateMutability": "nonpayable",
      "type": "function"
    },
    {
      "inputs": [
        {
          "internalType": "address",
          "name": "owner",
          "type": "address"
        }
      ],
      "name": "balanceOf",
      "outputs": [
        {
          "internalType": "uint256",
          "name": "",
          "type": "uint256"
        }
      ],
      "stateMutability": "view",
      "type": "function"
    },
    {
      "inputs": [
        {
          "internalType": "uint256",
          "name": "tokenId",
          "type": "uint256"
        }
      ],
      "name": "createMarketSale",
      "outputs": [],
      "stateMutability": "payable",
      "type": "function"
    },
    {
      "inputs": [
        {
          "internalType": "string",
          "name": "tokenURI",
          "type": "string"
        },
        {
          "internalType": "uint256",
          "name": "price",
          "type": "uint256"
        }
      ],
      "name": "createToken",
      "outputs": [
        {
          "internalType": "uint256",
          "name": "",
          "type": "uint256"
        }
      ],
      "stateMutability": "payable",
      "type": "function"
    },
    {
      "inputs": [],
      "name": "fetchItemsListed",
      "outputs": [
        {
          "components": [
            {
              "internalType": "uint256",
              "name": "tokenId",
              "type": "uint256"
            },
            {
              "internalType": "address payable",
              "name": "seller",
              "type": "address"
            },
            {
              "internalType": "address payable",
              "name": "owner",
              "type": "address"
            },
            {
              "internalType": "uint256",
              "name": "price",
              "type": "uint256"
            },
            {
              "internalType": "bool",
              "name": "sold",
              "type": "bool"
            }
          ],
          "internalType": "struct NFTMarketplace.MarketItem[]",
          "name": "",
          "type": "tuple[]"
        }
      ],
      "stateMutability": "view",
      "type": "function"
    },
    {
      "inputs": [],
      "name": "fetchMarketItems",
      "outputs": [
        {
          "components": [
            {
              "internalType": "uint256",
              "name": "tokenId",
              "type": "uint256"
            },
            {
              "internalType": "address payable",
              "name": "seller",
              "type": "address"
            },
            {
              "internalType": "address payable",
              "name": "owner",
              "type": "address"
            },
            {
              "internalType": "uint256",
              "name": "price",
              "type": "uint256"
            },
            {
              "internalType": "bool",
              "name": "sold",
              "type": "bool"
            }
          ],
          "internalType": "struct NFTMarketplace.MarketItem[]",
          "name": "",
          "type": "tuple[]"
        }
      ],
      "stateMutability": "view",
      "type": "function"
    },
    {
      "inputs": [],
      "name": "fetchMyNFTs",
      "outputs": [
        {
          "components": [
            {
              "internalType": "uint256",
              "name": "tokenId",
              "type": "uint256"
            },
            {
              "internalType": "address payable",
              "name": "seller",
              "type": "address"
            },
            {
              "internalType": "address payable",
              "name": "owner",
              "type": "address"
            },
            {
              "internalType": "uint256",
              "name": "price",
              "type": "uint256"
            },
            {
              "internalType": "bool",
              "name": "sold",
              "type": "bool"
            }
          ],
          "internalType": "struct NFTMarketplace.MarketItem[]",
          "name": "",
          "type": "tuple[]"
        }
      ],
      "stateMutability": "view",
      "type": "function"
    },
    {
      "inputs": [
        {
          "internalType": "uint256",
          "name": "tokenId",
          "type": "uint256"
        }
      ],
      "name": "getApproved",
      "outputs": [
        {
          "internalType": "address",
          "name": "",
          "type": "address"
        }
      ],
      "stateMutability": "view",
      "type": "function"
    },
    {
      "inputs": [],
      "name": "getListingPrice",
      "outputs": [
        {
          "internalType": "uint256",
          "name": "",
          "type": "uint256"
        }
      ],
      "stateMutability": "view",
      "type": "function"
    },
    {
      "inputs": [
        {
          "internalType": "address",
          "name": "owner",
          "type": "address"
        },
        {
          "internalType": "address",
          "name": "operator",
          "type": "address"
        }
      ],
      "name": "isApprovedForAll",
      "outputs": [
        {
          "internalType": "bool",
          "name": "",
          "type": "bool"
        }
      ],
      "stateMutability": "view",
      "type": "function"
    },
    {
      "inputs": [],
      "name": "name",
      "outputs": [
        {
          "internalType": "string",
          "name": "",
          "type": "string"
        }
      ],
      "stateMutability": "view",
      "type": "function"
    },
    {
      "inputs": [
        {
          "internalType": "uint256",
          "name": "tokenId",
          "type": "uint256"
        }
      ],
      "name": "ownerOf",
      "outputs": [
        {
          "internalType": "address",
          "name": "",
          "type": "address"
        }
      ],
      "stateMutability": "view",
      "type": "function"
    },
    {
      "inputs": [
        {
          "internalType": "uint256",
          "name": "tokenId",
          "type": "uint256"
        },
        {
          "internalType": "uint256",
          "name": "price",
          "type": "uint256"
        }
      ],
      "name": "resellToken",
      "outputs": [],
      "stateMutability": "payable",
      "type": "function"
    },
    {
      "inputs": [
        {
          "internalType": "address",
          "name": "from",
          "type": "address"
        },
        {
          "internalType": "address",
          "name": "to",
          "type": "address"
        },
        {
          "internalType": "uint256",
          "name": "tokenId",
          "type": "uint256"
        }
      ],
      "name": "safeTransferFrom",
      "outputs": [],
      "stateMutability": "nonpayable",
      "type": "function"
    },
    {
      "inputs": [
        {
          "internalType": "address",
          "name": "from",
          "type": "address"
        },
        {
          "internalType": "address",
          "name": "to",
          "type": "address"
        },
        {
          "internalType": "uint256",
          "name": "tokenId",
          "type": "uint256"
        },
        {
          "internalType": "bytes",
          "name": "_data",
          "type": "bytes"
        }
      ],
      "name": "safeTransferFrom",
      "outputs": [],
      "stateMutability": "nonpayable",
      "type": "function"
    },
    {
      "inputs": [
        {
          "internalType": "address",
          "name": "operator",
          "type": "address"
        },
        {
          "internalType": "bool",
          "name": "approved",
          "type": "bool"
        }
      ],
      "name": "setApprovalForAll",
      "outputs": [],
      "stateMutability": "nonpayable",
      "type": "function"
    },
    {
      "inputs": [
        {
          "internalType": "bytes4",
          "name": "interfaceId",
          "type": "bytes4"
        }
      ],
      "name": "supportsInterface",
      "outputs": [
        {
          "internalType": "bool",
          "name": "",
          "type": "bool"
        }
      ],
      "stateMutability": "view",
      "type": "function"
    },
    {
      "inputs": [],
      "name": "symbol",
      "outputs": [
        {
          "internalType": "string",
          "name": "",
          "type": "string"
        }
      ],
      "stateMutability": "view",
      "type": "function"
    },
    {
      "inputs": [
        {
          "internalType": "uint256",
          "name": "tokenId",
          "type": "uint256"
        }
      ],
      "name": "tokenURI",
      "outputs": [
        {
          "internalType": "string",
          "name": "",
          "type": "string"
        }
      ],
      "stateMutability": "view",
      "type": "function"
    },
    {
      "inputs": [
        {
          "internalType": "address",
          "name": "from",
          "type": "address"
        },
        {
          "internalType": "address",
          "name": "to",
          "type": "address"
        },
        {
          "internalType": "uint256",
          "name": "tokenId",
          "type": "uint256"
        }
      ],
      "name": "transferFrom",
      "outputs": [],
      "stateMutability": "nonpayable",
      "type": "function"
    },
    {
      "inputs": [
        {
          "internalType": "uint256",
          "name": "tokenId",
          "type": "uint256"
        },
        {
          "internalType": "address",
          "name": "receiver",
          "type": "address"
        }
      ],
      "name": "transferItem",
      "outputs": [],
      "stateMutability": "payable",
      "type": "function"
    },
    {
      "inputs": [
        {
          "internalType": "uint256",
          "name": "_listingPrice",
          "type": "uint256"
        }
      ],
      "name": "updateListingPrice",
      "outputs": [],
      "stateMutability": "payable",
      "type": "function"
    }
  ],
  "bytecode": "0x60806040526658d15e176280006009553480156200001c57600080fd5b50604080518082018252600a8152694577617374654974656d60b01b60208083019182528351808501909452600384526245574960e81b9084015281519192916200006a916000916200009b565b508051620000809060019060208401906200009b565b5050600a80546001600160a01b03191633179055506200017e565b828054620000a99062000141565b90600052602060002090601f016020900481019282620000cd576000855562000118565b82601f10620000e857805160ff191683800117855562000118565b8280016001018555821562000118579182015b8281111562000118578251825591602001919060010190620000fb565b50620001269291506200012a565b5090565b5b808211156200012657600081556001016200012b565b600181811c908216806200015657607f821691505b602082108114156200017857634e487b7160e01b600052602260045260246000fd5b50919050565b61241f806200018e6000396000f3fe6080604052600436106101355760003560e01c806370a08231116100ab578063ae677aa31161006f578063ae677aa314610331578063b88d4fde14610344578063be9af53614610364578063c87b56dd14610377578063e219fc7514610397578063e985e9c5146103aa57600080fd5b806370a08231146102b657806372b3b620146102d657806395d89b41146102e9578063a22cb465146102fe578063a42291011461031e57600080fd5b806312e85585116100fd57806312e855851461020d578063202e37401461022c57806323b872dd1461024157806342842e0e1461026157806345f8fa80146102815780636352211e1461029657600080fd5b806301ffc9a71461013a57806306fdde031461016f578063081812fc14610191578063095ea7b3146101c95780630f08efe0146101eb575b600080fd5b34801561014657600080fd5b5061015a610155366004611f74565b6103f3565b60405190151581526020015b60405180910390f35b34801561017b57600080fd5b50610184610445565b6040516101669190612171565b34801561019d57600080fd5b506101b16101ac366004612002565b6104d7565b6040516001600160a01b039091168152602001610166565b3480156101d557600080fd5b506101e96101e4366004611f4b565b610564565b005b3480156101f757600080fd5b5061020061067a565b60405161016691906120f5565b34801561021957600080fd5b506009545b604051908152602001610166565b34801561023857600080fd5b5061020061082e565b34801561024d57600080fd5b506101e961025c366004611e5d565b610a20565b34801561026d57600080fd5b506101e961027c366004611e5d565b610a51565b34801561028d57600080fd5b50610200610a6c565b3480156102a257600080fd5b506101b16102b1366004612002565b610c5e565b3480156102c257600080fd5b5061021e6102d1366004611e11565b610cd5565b61021e6102e4366004611fac565b610d5c565b3480156102f557600080fd5b50610184610d9e565b34801561030a57600080fd5b506101e9610319366004611f11565b610dad565b6101e961032c36600461201a565b610dbc565b6101e961033f366004612002565b610e2a565b34801561035057600080fd5b506101e961035f366004611e98565b610ea2565b6101e9610372366004612002565b610eda565b34801561038357600080fd5b50610184610392366004612002565b61103f565b6101e96103a536600461203c565b6111b6565b3480156103b657600080fd5b5061015a6103c5366004611e2b565b6001600160a01b03918216600090815260056020908152604080832093909416825291909152205460ff1690565b60006001600160e01b031982166380ac58cd60e01b148061042457506001600160e01b03198216635b5e139f60e01b145b8061043f57506301ffc9a760e01b6001600160e01b03198316145b92915050565b60606000805461045490612324565b80601f016020809104026020016040519081016040528092919081815260200182805461048090612324565b80156104cd5780601f106104a2576101008083540402835291602001916104cd565b820191906000526020600020905b8154815290600101906020018083116104b057829003601f168201915b5050505050905090565b60006104e28261126b565b6105485760405162461bcd60e51b815260206004820152602c60248201527f4552433732313a20617070726f76656420717565727920666f72206e6f6e657860448201526b34b9ba32b73a103a37b5b2b760a11b60648201526084015b60405180910390fd5b506000908152600460205260409020546001600160a01b031690565b600061056f82610c5e565b9050806001600160a01b0316836001600160a01b031614156105dd5760405162461bcd60e51b815260206004820152602160248201527f4552433732313a20617070726f76616c20746f2063757272656e74206f776e656044820152603960f91b606482015260840161053f565b336001600160a01b03821614806105f957506105f981336103c5565b61066b5760405162461bcd60e51b815260206004820152603860248201527f4552433732313a20617070726f76652063616c6c6572206973206e6f74206f7760448201527f6e6572206e6f7220617070726f76656420666f7220616c6c0000000000000000606482015260840161053f565b6106758383611288565b505050565b6060600061068760075490565b9050600061069460085490565b6007546106a191906122e1565b90506000808267ffffffffffffffff8111156106cd57634e487b7160e01b600052604160045260246000fd5b60405190808252806020026020018201604052801561072657816020015b6040805160a0810182526000808252602080830182905292820181905260608201819052608082015282526000199092019101816106eb5790505b50905060005b848110156108255730600b60006107448460016122b5565b81526020810191909152604001600020600201546001600160a01b031614156108135760006107748260016122b5565b6000818152600b6020908152604091829020825160a0810184528154815260018201546001600160a01b039081169382019390935260028201549092169282019290925260038201546060820152600482015460ff1615156080820152855192935090918590879081106107f857634e487b7160e01b600052603260045260246000fd5b602090810291909101015261080e6001866122b5565b945050505b8061081d8161235f565b91505061072c565b50949350505050565b6060600061083b60075490565b905060008060005b8381101561089e5733600b600061085b8460016122b5565b81526020810191909152604001600020600201546001600160a01b0316141561088c576108896001846122b5565b92505b806108968161235f565b915050610843565b5060008267ffffffffffffffff8111156108c857634e487b7160e01b600052604160045260246000fd5b60405190808252806020026020018201604052801561092157816020015b6040805160a0810182526000808252602080830182905292820181905260608201819052608082015282526000199092019101816108e65790505b50905060005b848110156108255733600b600061093f8460016122b5565b81526020810191909152604001600020600201546001600160a01b03161415610a0e57600061096f8260016122b5565b6000818152600b6020908152604091829020825160a0810184528154815260018201546001600160a01b039081169382019390935260028201549092169282019290925260038201546060820152600482015460ff1615156080820152855192935090918590879081106109f357634e487b7160e01b600052603260045260246000fd5b6020908102919091010152610a096001866122b5565b945050505b80610a188161235f565b915050610927565b610a2a33826112f6565b610a465760405162461bcd60e51b815260040161053f90612264565b6106758383836113df565b61067583838360405180602001604052806000815250610ea2565b60606000610a7960075490565b905060008060005b83811015610adc5733600b6000610a998460016122b5565b81526020810191909152604001600020600101546001600160a01b03161415610aca57610ac76001846122b5565b92505b80610ad48161235f565b915050610a81565b5060008267ffffffffffffffff811115610b0657634e487b7160e01b600052604160045260246000fd5b604051908082528060200260200182016040528015610b5f57816020015b6040805160a081018252600080825260208083018290529282018190526060820181905260808201528252600019909201910181610b245790505b50905060005b848110156108255733600b6000610b7d8460016122b5565b81526020810191909152604001600020600101546001600160a01b03161415610c4c576000610bad8260016122b5565b6000818152600b6020908152604091829020825160a0810184528154815260018201546001600160a01b039081169382019390935260028201549092169282019290925260038201546060820152600482015460ff161515608082015285519293509091859087908110610c3157634e487b7160e01b600052603260045260246000fd5b6020908102919091010152610c476001866122b5565b945050505b80610c568161235f565b915050610b65565b6000818152600260205260408120546001600160a01b03168061043f5760405162461bcd60e51b815260206004820152602960248201527f4552433732313a206f776e657220717565727920666f72206e6f6e657869737460448201526832b73a103a37b5b2b760b91b606482015260840161053f565b60006001600160a01b038216610d405760405162461bcd60e51b815260206004820152602a60248201527f4552433732313a2062616c616e636520717565727920666f7220746865207a65604482015269726f206164647265737360b01b606482015260840161053f565b506001600160a01b031660009081526003602052604090205490565b6000610d6c600780546001019055565b6000610d7760075490565b9050610d83338261157b565b610d8d81856116ae565b610d978184611739565b9392505050565b60606001805461045490612324565b610db833838361188f565b5050565b6000828152600b60205260409020600201546001600160a01b03163314610df55760405162461bcd60e51b815260040161053f906121d6565b6000828152600b6020526040902060020180546001600160a01b0319166001600160a01b038316179055610db83382846113df565b600a546001600160a01b03163314610e9d5760405162461bcd60e51b815260206004820152603060248201527f4f6e6c79206d61726b6574706c616365206f776e65722063616e20757064617460448201526f32903634b9ba34b73390383934b1b29760811b606482015260840161053f565b600955565b610eac33836112f6565b610ec85760405162461bcd60e51b815260040161053f90612264565b610ed48484848461195e565b50505050565b6000818152600b6020526040902060038101546001909101546001600160a01b0316348214610f73576040805162461bcd60e51b81526020600482015260248101919091527f506c65617365207375626d6974207468652061736b696e67207072696365206960448201527f6e206f7264657220746f20636f6d706c65746520746865207075726368617365606482015260840161053f565b6000838152600b602052604090206002810180546001600160a01b0319908116331790915560048201805460ff1916600190811790915590910180549091169055610fc2600880546001019055565b610fcd3033856113df565b600a546009546040516001600160a01b039092169181156108fc0291906000818181858888f19350505050158015611009573d6000803e3d6000fd5b506040516001600160a01b038216903480156108fc02916000818181858888f19350505050158015610ed4573d6000803e3d6000fd5b606061104a8261126b565b6110b05760405162461bcd60e51b815260206004820152603160248201527f45524337323155524953746f726167653a2055524920717565727920666f72206044820152703737b732bc34b9ba32b73a103a37b5b2b760791b606482015260840161053f565b600082815260066020526040812080546110c990612324565b80601f01602080910402602001604051908101604052809291908181526020018280546110f590612324565b80156111425780601f1061111757610100808354040283529160200191611142565b820191906000526020600020905b81548152906001019060200180831161112557829003601f168201915b50505050509050600061116060408051602081019091526000815290565b9050805160001415611173575092915050565b8151156111a557808260405160200161118d929190612089565b60405160208183030381529060405292505050919050565b6111ae84611991565b949350505050565b6000828152600b60205260409020600201546001600160a01b031633146111ef5760405162461bcd60e51b815260040161053f906121d6565b60095434146112105760405162461bcd60e51b815260040161053f90612220565b6000828152600b6020526040902060048101805460ff19169055600381018290556001810180546001600160a01b0319908116331790915560029091018054909116301790556112606008611a68565b610db83330846113df565b6000908152600260205260409020546001600160a01b0316151590565b600081815260046020526040902080546001600160a01b0319166001600160a01b03841690811790915581906112bd82610c5e565b6001600160a01b03167f8c5be1e5ebec7d5bd14f71427d1e84f3dd0314c0f7b2291e5b200ac8c7c3b92560405160405180910390a45050565b60006113018261126b565b6113625760405162461bcd60e51b815260206004820152602c60248201527f4552433732313a206f70657261746f7220717565727920666f72206e6f6e657860448201526b34b9ba32b73a103a37b5b2b760a11b606482015260840161053f565b600061136d83610c5e565b9050806001600160a01b0316846001600160a01b031614806113b457506001600160a01b0380821660009081526005602090815260408083209388168352929052205460ff165b806111ae5750836001600160a01b03166113cd846104d7565b6001600160a01b031614949350505050565b826001600160a01b03166113f282610c5e565b6001600160a01b0316146114565760405162461bcd60e51b815260206004820152602560248201527f4552433732313a207472616e736665722066726f6d20696e636f72726563742060448201526437bbb732b960d91b606482015260840161053f565b6001600160a01b0382166114b85760405162461bcd60e51b8152602060048201526024808201527f4552433732313a207472616e7366657220746f20746865207a65726f206164646044820152637265737360e01b606482015260840161053f565b6114c3600082611288565b6001600160a01b03831660009081526003602052604081208054600192906114ec9084906122e1565b90915550506001600160a01b038216600090815260036020526040812080546001929061151a9084906122b5565b909155505060008181526002602052604080822080546001600160a01b0319166001600160a01b0386811691821790925591518493918716917fddf252ad1be2c89b69c2b068fc378daa952ba7f163c4a11628f55a4df523b3ef91a4505050565b6001600160a01b0382166115d15760405162461bcd60e51b815260206004820181905260248201527f4552433732313a206d696e7420746f20746865207a65726f2061646472657373604482015260640161053f565b6115da8161126b565b156116275760405162461bcd60e51b815260206004820152601c60248201527f4552433732313a20746f6b656e20616c7265616479206d696e74656400000000604482015260640161053f565b6001600160a01b03821660009081526003602052604081208054600192906116509084906122b5565b909155505060008181526002602052604080822080546001600160a01b0319166001600160a01b03861690811790915590518392907fddf252ad1be2c89b69c2b068fc378daa952ba7f163c4a11628f55a4df523b3ef908290a45050565b6116b78261126b565b61171a5760405162461bcd60e51b815260206004820152602e60248201527f45524337323155524953746f726167653a2055524920736574206f66206e6f6e60448201526d32bc34b9ba32b73a103a37b5b2b760911b606482015260840161053f565b6000828152600660209081526040909120825161067592840190611ce6565b600081116117895760405162461bcd60e51b815260206004820152601c60248201527f5072696365206d757374206265206174206c6561737420312077656900000000604482015260640161053f565b60095434146117aa5760405162461bcd60e51b815260040161053f90612220565b6040805160a08101825283815233602080830182815230848601818152606086018881526000608088018181528b8252600b909652979097209551865591516001860180546001600160a01b03199081166001600160a01b0393841617909155925160028701805490941691161790915593516003840155516004909201805460ff19169215159290921790915561184291846113df565b604080513381523060208201529081018290526000606082015282907fb640004f1d14576d0c209e240cad0410e0d8c0c33a09375861fbadae2588a98d9060800160405180910390a25050565b816001600160a01b0316836001600160a01b031614156118f15760405162461bcd60e51b815260206004820152601960248201527f4552433732313a20617070726f766520746f2063616c6c657200000000000000604482015260640161053f565b6001600160a01b03838116600081815260056020908152604080832094871680845294825291829020805460ff191686151590811790915591519182527f17307eab39ab6107e8899845ad3d59bd9653f200f220920489ca2b5937696c31910160405180910390a3505050565b6119698484846113df565b61197584848484611abf565b610ed45760405162461bcd60e51b815260040161053f90612184565b606061199c8261126b565b611a005760405162461bcd60e51b815260206004820152602f60248201527f4552433732314d657461646174613a2055524920717565727920666f72206e6f60448201526e3732bc34b9ba32b73a103a37b5b2b760891b606482015260840161053f565b6000611a1760408051602081019091526000815290565b90506000815111611a375760405180602001604052806000815250610d97565b80611a4184611bcc565b604051602001611a52929190612089565b6040516020818303038152906040529392505050565b805480611ab75760405162461bcd60e51b815260206004820152601b60248201527f436f756e7465723a2064656372656d656e74206f766572666c6f770000000000604482015260640161053f565b600019019055565b60006001600160a01b0384163b15611bc157604051630a85bd0160e11b81526001600160a01b0385169063150b7a0290611b039033908990889088906004016120b8565b602060405180830381600087803b158015611b1d57600080fd5b505af1925050508015611b4d575060408051601f3d908101601f19168201909252611b4a91810190611f90565b60015b611ba7573d808015611b7b576040519150601f19603f3d011682016040523d82523d6000602084013e611b80565b606091505b508051611b9f5760405162461bcd60e51b815260040161053f90612184565b805181602001fd5b6001600160e01b031916630a85bd0160e11b1490506111ae565b506001949350505050565b606081611bf05750506040805180820190915260018152600360fc1b602082015290565b8160005b8115611c1a5780611c048161235f565b9150611c139050600a836122cd565b9150611bf4565b60008167ffffffffffffffff811115611c4357634e487b7160e01b600052604160045260246000fd5b6040519080825280601f01601f191660200182016040528015611c6d576020820181803683370190505b5090505b84156111ae57611c826001836122e1565b9150611c8f600a8661237a565b611c9a9060306122b5565b60f81b818381518110611cbd57634e487b7160e01b600052603260045260246000fd5b60200101906001600160f81b031916908160001a905350611cdf600a866122cd565b9450611c71565b828054611cf290612324565b90600052602060002090601f016020900481019282611d145760008555611d5a565b82601f10611d2d57805160ff1916838001178555611d5a565b82800160010185558215611d5a579182015b82811115611d5a578251825591602001919060010190611d3f565b50611d66929150611d6a565b5090565b5b80821115611d665760008155600101611d6b565b600067ffffffffffffffff80841115611d9a57611d9a6123ba565b604051601f8501601f19908116603f01168101908282118183101715611dc257611dc26123ba565b81604052809350858152868686011115611ddb57600080fd5b858560208301376000602087830101525050509392505050565b80356001600160a01b0381168114611e0c57600080fd5b919050565b600060208284031215611e22578081fd5b610d9782611df5565b60008060408385031215611e3d578081fd5b611e4683611df5565b9150611e5460208401611df5565b90509250929050565b600080600060608486031215611e71578081fd5b611e7a84611df5565b9250611e8860208501611df5565b9150604084013590509250925092565b60008060008060808587031215611ead578081fd5b611eb685611df5565b9350611ec460208601611df5565b925060408501359150606085013567ffffffffffffffff811115611ee6578182fd5b8501601f81018713611ef6578182fd5b611f0587823560208401611d7f565b91505092959194509250565b60008060408385031215611f23578182fd5b611f2c83611df5565b915060208301358015158114611f40578182fd5b809150509250929050565b60008060408385031215611f5d578182fd5b611f6683611df5565b946020939093013593505050565b600060208284031215611f85578081fd5b8135610d97816123d0565b600060208284031215611fa1578081fd5b8151610d97816123d0565b60008060408385031215611fbe578182fd5b823567ffffffffffffffff811115611fd4578283fd5b8301601f81018513611fe4578283fd5b611ff385823560208401611d7f565b95602094909401359450505050565b600060208284031215612013578081fd5b5035919050565b6000806040838503121561202c578182fd5b82359150611e5460208401611df5565b6000806040838503121561204e578182fd5b50508035926020909101359150565b600081518084526120758160208601602086016122f8565b601f01601f19169290920160200192915050565b6000835161209b8184602088016122f8565b8351908301906120af8183602088016122f8565b01949350505050565b6001600160a01b03858116825284166020820152604081018390526080606082018190526000906120eb9083018461205d565b9695505050505050565b602080825282518282018190526000919060409081850190868401855b8281101561216457815180518552868101516001600160a01b03908116888701528682015116868601526060808201519086015260809081015115159085015260a09093019290850190600101612112565b5091979650505050505050565b602081526000610d97602083018461205d565b60208082526032908201527f4552433732313a207472616e7366657220746f206e6f6e20455243373231526560408201527131b2b4bb32b91034b6b83632b6b2b73a32b960711b606082015260800190565b6020808252602a908201527f4f6e6c79206974656d206f776e65722063616e20706572666f726d20746869736040820152691037b832b930ba34b7b760b11b606082015260800190565b60208082526024908201527f5072696365206d75737420626520657175616c20746f206c697374696e6720706040820152637269636560e01b606082015260800190565b60208082526031908201527f4552433732313a207472616e736665722063616c6c6572206973206e6f74206f6040820152701ddb995c881b9bdc88185c1c1c9bdd9959607a1b606082015260800190565b600082198211156122c8576122c861238e565b500190565b6000826122dc576122dc6123a4565b500490565b6000828210156122f3576122f361238e565b500390565b60005b838110156123135781810151838201526020016122fb565b83811115610ed45750506000910152565b600181811c9082168061233857607f821691505b6020821081141561235957634e487b7160e01b600052602260045260246000fd5b50919050565b60006000198214156123735761237361238e565b5060010190565b600082612389576123896123a4565b500690565b634e487b7160e01b600052601160045260246000fd5b634e487b7160e01b600052601260045260246000fd5b634e487b7160e01b600052604160045260246000fd5b6001600160e01b0319811681146123e657600080fd5b5056fea2646970667358221220e0aa2ffb8b866140408cba64a528cf40dadadcff8315d35d593ab01420fdcd8864736f6c63430008040033",
  "linkReferences": {},
  "deployedLinkReferences": {}
}