{
  "_format": "hh-sol-artifact-1",
  "contractName": "NFTMarketplace",
  "sourceName": "contracts/NFTMarketplace.sol",
  "abi": [
    {
      "inputs": [],
      "stateMutability": "nonpayable",
      "type": "constructor"
    },
    {
      "anonymous": false,
      "inputs": [
        {
          "indexed": true,
          "internalType": "address",
          "name": "owner",
          "type": "address"
        },
        {
          "indexed": true,
          "internalType": "address",
          "name": "approved",
          "type": "address"
        },
        {
          "indexed": true,
          "internalType": "uint256",
          "name": "tokenId",
          "type": "uint256"
        }
      ],
      "name": "Approval",
      "type": "event"
    },
    {
      "anonymous": false,
      "inputs": [
        {
          "indexed": true,
          "internalType": "address",
          "name": "owner",
          "type": "address"
        },
        {
          "indexed": true,
          "internalType": "address",
          "name": "operator",
          "type": "address"
        },
        {
          "indexed": false,
          "internalType": "bool",
          "name": "approved",
          "type": "bool"
        }
      ],
      "name": "ApprovalForAll",
      "type": "event"
    },
    {
      "anonymous": false,
      "inputs": [
        {
          "indexed": true,
          "internalType": "uint256",
          "name": "tokenId",
          "type": "uint256"
        },
        {
          "indexed": false,
          "internalType": "address",
          "name": "seller",
          "type": "address"
        },
        {
          "indexed": false,
          "internalType": "address",
          "name": "owner",
          "type": "address"
        },
        {
          "indexed": false,
          "internalType": "uint256",
          "name": "price",
          "type": "uint256"
        },
        {
          "indexed": false,
          "internalType": "bool",
          "name": "sold",
          "type": "bool"
        }
      ],
      "name": "MarketItemCreated",
      "type": "event"
    },
    {
      "anonymous": false,
      "inputs": [
        {
          "indexed": true,
          "internalType": "address",
          "name": "from",
          "type": "address"
        },
        {
          "indexed": true,
          "internalType": "address",
          "name": "to",
          "type": "address"
        },
        {
          "indexed": true,
          "internalType": "uint256",
          "name": "tokenId",
          "type": "uint256"
        }
      ],
      "name": "Transfer",
      "type": "event"
    },
    {
      "inputs": [
        {
          "internalType": "address",
          "name": "to",
          "type": "address"
        },
        {
          "internalType": "uint256",
          "name": "tokenId",
          "type": "uint256"
        }
      ],
      "name": "approve",
      "outputs": [],
      "stateMutability": "nonpayable",
      "type": "function"
    },
    {
      "inputs": [
        {
          "internalType": "address",
          "name": "owner",
          "type": "address"
        }
      ],
      "name": "balanceOf",
      "outputs": [
        {
          "internalType": "uint256",
          "name": "",
          "type": "uint256"
        }
      ],
      "stateMutability": "view",
      "type": "function"
    },
    {
      "inputs": [
        {
          "internalType": "uint256",
          "name": "tokenId",
          "type": "uint256"
        }
      ],
      "name": "createMarketSale",
      "outputs": [],
      "stateMutability": "payable",
      "type": "function"
    },
    {
      "inputs": [
        {
          "internalType": "string",
          "name": "tokenURI",
          "type": "string"
        },
        {
          "internalType": "uint256",
          "name": "price",
          "type": "uint256"
        }
      ],
      "name": "createToken",
      "outputs": [
        {
          "internalType": "uint256",
          "name": "",
          "type": "uint256"
        }
      ],
      "stateMutability": "payable",
      "type": "function"
    },
    {
      "inputs": [
        {
          "internalType": "uint256",
          "name": "tokenId",
          "type": "uint256"
        }
      ],
      "name": "deListItem",
      "outputs": [],
      "stateMutability": "payable",
      "type": "function"
    },
    {
      "inputs": [],
      "name": "fetchItemsListed",
      "outputs": [
        {
          "components": [
            {
              "internalType": "uint256",
              "name": "tokenId",
              "type": "uint256"
            },
            {
              "internalType": "address payable",
              "name": "seller",
              "type": "address"
            },
            {
              "internalType": "address payable",
              "name": "owner",
              "type": "address"
            },
            {
              "internalType": "uint256",
              "name": "price",
              "type": "uint256"
            },
            {
              "internalType": "bool",
              "name": "sold",
              "type": "bool"
            }
          ],
          "internalType": "struct NFTMarketplace.MarketItem[]",
          "name": "",
          "type": "tuple[]"
        }
      ],
      "stateMutability": "view",
      "type": "function"
    },
    {
      "inputs": [],
      "name": "fetchMarketItems",
      "outputs": [
        {
          "components": [
            {
              "internalType": "uint256",
              "name": "tokenId",
              "type": "uint256"
            },
            {
              "internalType": "address payable",
              "name": "seller",
              "type": "address"
            },
            {
              "internalType": "address payable",
              "name": "owner",
              "type": "address"
            },
            {
              "internalType": "uint256",
              "name": "price",
              "type": "uint256"
            },
            {
              "internalType": "bool",
              "name": "sold",
              "type": "bool"
            }
          ],
          "internalType": "struct NFTMarketplace.MarketItem[]",
          "name": "",
          "type": "tuple[]"
        }
      ],
      "stateMutability": "view",
      "type": "function"
    },
    {
      "inputs": [],
      "name": "fetchMyNFTs",
      "outputs": [
        {
          "components": [
            {
              "internalType": "uint256",
              "name": "tokenId",
              "type": "uint256"
            },
            {
              "internalType": "address payable",
              "name": "seller",
              "type": "address"
            },
            {
              "internalType": "address payable",
              "name": "owner",
              "type": "address"
            },
            {
              "internalType": "uint256",
              "name": "price",
              "type": "uint256"
            },
            {
              "internalType": "bool",
              "name": "sold",
              "type": "bool"
            }
          ],
          "internalType": "struct NFTMarketplace.MarketItem[]",
          "name": "",
          "type": "tuple[]"
        }
      ],
      "stateMutability": "view",
      "type": "function"
    },
    {
      "inputs": [
        {
          "internalType": "uint256",
          "name": "tokenId",
          "type": "uint256"
        }
      ],
      "name": "getApproved",
      "outputs": [
        {
          "internalType": "address",
          "name": "",
          "type": "address"
        }
      ],
      "stateMutability": "view",
      "type": "function"
    },
    {
      "inputs": [],
      "name": "getListingPrice",
      "outputs": [
        {
          "internalType": "uint256",
          "name": "",
          "type": "uint256"
        }
      ],
      "stateMutability": "view",
      "type": "function"
    },
    {
      "inputs": [
        {
          "internalType": "address",
          "name": "owner",
          "type": "address"
        },
        {
          "internalType": "address",
          "name": "operator",
          "type": "address"
        }
      ],
      "name": "isApprovedForAll",
      "outputs": [
        {
          "internalType": "bool",
          "name": "",
          "type": "bool"
        }
      ],
      "stateMutability": "view",
      "type": "function"
    },
    {
      "inputs": [],
      "name": "name",
      "outputs": [
        {
          "internalType": "string",
          "name": "",
          "type": "string"
        }
      ],
      "stateMutability": "view",
      "type": "function"
    },
    {
      "inputs": [
        {
          "internalType": "uint256",
          "name": "tokenId",
          "type": "uint256"
        }
      ],
      "name": "ownerOf",
      "outputs": [
        {
          "internalType": "address",
          "name": "",
          "type": "address"
        }
      ],
      "stateMutability": "view",
      "type": "function"
    },
    {
      "inputs": [
        {
          "internalType": "uint256",
          "name": "tokenId",
          "type": "uint256"
        },
        {
          "internalType": "uint256",
          "name": "price",
          "type": "uint256"
        }
      ],
      "name": "resellToken",
      "outputs": [],
      "stateMutability": "payable",
      "type": "function"
    },
    {
      "inputs": [
        {
          "internalType": "address",
          "name": "from",
          "type": "address"
        },
        {
          "internalType": "address",
          "name": "to",
          "type": "address"
        },
        {
          "internalType": "uint256",
          "name": "tokenId",
          "type": "uint256"
        }
      ],
      "name": "safeTransferFrom",
      "outputs": [],
      "stateMutability": "nonpayable",
      "type": "function"
    },
    {
      "inputs": [
        {
          "internalType": "address",
          "name": "from",
          "type": "address"
        },
        {
          "internalType": "address",
          "name": "to",
          "type": "address"
        },
        {
          "internalType": "uint256",
          "name": "tokenId",
          "type": "uint256"
        },
        {
          "internalType": "bytes",
          "name": "_data",
          "type": "bytes"
        }
      ],
      "name": "safeTransferFrom",
      "outputs": [],
      "stateMutability": "nonpayable",
      "type": "function"
    },
    {
      "inputs": [
        {
          "internalType": "address",
          "name": "operator",
          "type": "address"
        },
        {
          "internalType": "bool",
          "name": "approved",
          "type": "bool"
        }
      ],
      "name": "setApprovalForAll",
      "outputs": [],
      "stateMutability": "nonpayable",
      "type": "function"
    },
    {
      "inputs": [
        {
          "internalType": "bytes4",
          "name": "interfaceId",
          "type": "bytes4"
        }
      ],
      "name": "supportsInterface",
      "outputs": [
        {
          "internalType": "bool",
          "name": "",
          "type": "bool"
        }
      ],
      "stateMutability": "view",
      "type": "function"
    },
    {
      "inputs": [],
      "name": "symbol",
      "outputs": [
        {
          "internalType": "string",
          "name": "",
          "type": "string"
        }
      ],
      "stateMutability": "view",
      "type": "function"
    },
    {
      "inputs": [
        {
          "internalType": "uint256",
          "name": "tokenId",
          "type": "uint256"
        }
      ],
      "name": "tokenURI",
      "outputs": [
        {
          "internalType": "string",
          "name": "",
          "type": "string"
        }
      ],
      "stateMutability": "view",
      "type": "function"
    },
    {
      "inputs": [
        {
          "internalType": "address",
          "name": "from",
          "type": "address"
        },
        {
          "internalType": "address",
          "name": "to",
          "type": "address"
        },
        {
          "internalType": "uint256",
          "name": "tokenId",
          "type": "uint256"
        }
      ],
      "name": "transferFrom",
      "outputs": [],
      "stateMutability": "nonpayable",
      "type": "function"
    },
    {
      "inputs": [
        {
          "internalType": "uint256",
          "name": "tokenId",
          "type": "uint256"
        },
        {
          "internalType": "address",
          "name": "receiver",
          "type": "address"
        }
      ],
      "name": "transferItem",
      "outputs": [],
      "stateMutability": "payable",
      "type": "function"
    },
    {
      "inputs": [
        {
          "internalType": "uint256",
          "name": "_listingPrice",
          "type": "uint256"
        }
      ],
      "name": "updateListingPrice",
      "outputs": [],
      "stateMutability": "payable",
      "type": "function"
    }
  ],
  "bytecode": "0x60806040526658d15e176280006009553480156200001c57600080fd5b50604080518082018252600a8152694577617374654974656d60b01b60208083019182528351808501909452600384526245574960e81b9084015281519192916200006a916000916200009b565b508051620000809060019060208401906200009b565b5050600a80546001600160a01b03191633179055506200017e565b828054620000a99062000141565b90600052602060002090601f016020900481019282620000cd576000855562000118565b82601f10620000e857805160ff191683800117855562000118565b8280016001018555821562000118579182015b8281111562000118578251825591602001919060010190620000fb565b50620001269291506200012a565b5090565b5b808211156200012657600081556001016200012b565b600181811c908216806200015657607f821691505b602082108114156200017857634e487b7160e01b600052602260045260246000fd5b50919050565b612526806200018e6000396000f3fe6080604052600436106101405760003560e01c806370a08231116100b6578063b88d4fde1161006f578063b88d4fde1461034f578063be9af5361461036f578063c87b56dd14610382578063e219fc75146103a2578063e4ab9e7b146103b5578063e985e9c5146103c857600080fd5b806370a08231146102c157806372b3b620146102e157806395d89b41146102f4578063a22cb46514610309578063a422910114610329578063ae677aa31461033c57600080fd5b806312e855851161010857806312e8558514610218578063202e37401461023757806323b872dd1461024c57806342842e0e1461026c57806345f8fa801461028c5780636352211e146102a157600080fd5b806301ffc9a71461014557806306fdde031461017a578063081812fc1461019c578063095ea7b3146101d45780630f08efe0146101f6575b600080fd5b34801561015157600080fd5b5061016561016036600461207b565b610411565b60405190151581526020015b60405180910390f35b34801561018657600080fd5b5061018f610463565b6040516101719190612278565b3480156101a857600080fd5b506101bc6101b7366004612109565b6104f5565b6040516001600160a01b039091168152602001610171565b3480156101e057600080fd5b506101f46101ef366004612052565b610582565b005b34801561020257600080fd5b5061020b610698565b60405161017191906121fc565b34801561022457600080fd5b506009545b604051908152602001610171565b34801561024357600080fd5b5061020b61084c565b34801561025857600080fd5b506101f4610267366004611f64565b610a3e565b34801561027857600080fd5b506101f4610287366004611f64565b610a6f565b34801561029857600080fd5b5061020b610a8a565b3480156102ad57600080fd5b506101bc6102bc366004612109565b610c7c565b3480156102cd57600080fd5b506102296102dc366004611f18565b610cf3565b6102296102ef3660046120b3565b610d7a565b34801561030057600080fd5b5061018f610dbc565b34801561031557600080fd5b506101f4610324366004612018565b610dcb565b6101f4610337366004612121565b610dda565b6101f461034a366004612109565b610e48565b34801561035b57600080fd5b506101f461036a366004611f9f565b610ec0565b6101f461037d366004612109565b610ef8565b34801561038e57600080fd5b5061018f61039d366004612109565b61105d565b6101f46103b0366004612143565b6111d4565b6101f46103c3366004612109565b611289565b3480156103d457600080fd5b506101656103e3366004611f32565b6001600160a01b03918216600090815260056020908152604080832093909416825291909152205460ff1690565b60006001600160e01b031982166380ac58cd60e01b148061044257506001600160e01b03198216635b5e139f60e01b145b8061045d57506301ffc9a760e01b6001600160e01b03198316145b92915050565b6060600080546104729061242b565b80601f016020809104026020016040519081016040528092919081815260200182805461049e9061242b565b80156104eb5780601f106104c0576101008083540402835291602001916104eb565b820191906000526020600020905b8154815290600101906020018083116104ce57829003601f168201915b5050505050905090565b600061050082611372565b6105665760405162461bcd60e51b815260206004820152602c60248201527f4552433732313a20617070726f76656420717565727920666f72206e6f6e657860448201526b34b9ba32b73a103a37b5b2b760a11b60648201526084015b60405180910390fd5b506000908152600460205260409020546001600160a01b031690565b600061058d82610c7c565b9050806001600160a01b0316836001600160a01b031614156105fb5760405162461bcd60e51b815260206004820152602160248201527f4552433732313a20617070726f76616c20746f2063757272656e74206f776e656044820152603960f91b606482015260840161055d565b336001600160a01b0382161480610617575061061781336103e3565b6106895760405162461bcd60e51b815260206004820152603860248201527f4552433732313a20617070726f76652063616c6c6572206973206e6f74206f7760448201527f6e6572206e6f7220617070726f76656420666f7220616c6c0000000000000000606482015260840161055d565b610693838361138f565b505050565b606060006106a560075490565b905060006106b260085490565b6007546106bf91906123e8565b90506000808267ffffffffffffffff8111156106eb57634e487b7160e01b600052604160045260246000fd5b60405190808252806020026020018201604052801561074457816020015b6040805160a0810182526000808252602080830182905292820181905260608201819052608082015282526000199092019101816107095790505b50905060005b848110156108435730600b60006107628460016123bc565b81526020810191909152604001600020600201546001600160a01b031614156108315760006107928260016123bc565b6000818152600b6020908152604091829020825160a0810184528154815260018201546001600160a01b039081169382019390935260028201549092169282019290925260038201546060820152600482015460ff16151560808201528551929350909185908790811061081657634e487b7160e01b600052603260045260246000fd5b602090810291909101015261082c6001866123bc565b945050505b8061083b81612466565b91505061074a565b50949350505050565b6060600061085960075490565b905060008060005b838110156108bc5733600b60006108798460016123bc565b81526020810191909152604001600020600201546001600160a01b031614156108aa576108a76001846123bc565b92505b806108b481612466565b915050610861565b5060008267ffffffffffffffff8111156108e657634e487b7160e01b600052604160045260246000fd5b60405190808252806020026020018201604052801561093f57816020015b6040805160a0810182526000808252602080830182905292820181905260608201819052608082015282526000199092019101816109045790505b50905060005b848110156108435733600b600061095d8460016123bc565b81526020810191909152604001600020600201546001600160a01b03161415610a2c57600061098d8260016123bc565b6000818152600b6020908152604091829020825160a0810184528154815260018201546001600160a01b039081169382019390935260028201549092169282019290925260038201546060820152600482015460ff161515608082015285519293509091859087908110610a1157634e487b7160e01b600052603260045260246000fd5b6020908102919091010152610a276001866123bc565b945050505b80610a3681612466565b915050610945565b610a4833826113fd565b610a645760405162461bcd60e51b815260040161055d9061236b565b6106938383836114e6565b61069383838360405180602001604052806000815250610ec0565b60606000610a9760075490565b905060008060005b83811015610afa5733600b6000610ab78460016123bc565b81526020810191909152604001600020600101546001600160a01b03161415610ae857610ae56001846123bc565b92505b80610af281612466565b915050610a9f565b5060008267ffffffffffffffff811115610b2457634e487b7160e01b600052604160045260246000fd5b604051908082528060200260200182016040528015610b7d57816020015b6040805160a081018252600080825260208083018290529282018190526060820181905260808201528252600019909201910181610b425790505b50905060005b848110156108435733600b6000610b9b8460016123bc565b81526020810191909152604001600020600101546001600160a01b03161415610c6a576000610bcb8260016123bc565b6000818152600b6020908152604091829020825160a0810184528154815260018201546001600160a01b039081169382019390935260028201549092169282019290925260038201546060820152600482015460ff161515608082015285519293509091859087908110610c4f57634e487b7160e01b600052603260045260246000fd5b6020908102919091010152610c656001866123bc565b945050505b80610c7481612466565b915050610b83565b6000818152600260205260408120546001600160a01b03168061045d5760405162461bcd60e51b815260206004820152602960248201527f4552433732313a206f776e657220717565727920666f72206e6f6e657869737460448201526832b73a103a37b5b2b760b91b606482015260840161055d565b60006001600160a01b038216610d5e5760405162461bcd60e51b815260206004820152602a60248201527f4552433732313a2062616c616e636520717565727920666f7220746865207a65604482015269726f206164647265737360b01b606482015260840161055d565b506001600160a01b031660009081526003602052604090205490565b6000610d8a600780546001019055565b6000610d9560075490565b9050610da13382611682565b610dab81856117b5565b610db58184611840565b9392505050565b6060600180546104729061242b565b610dd6338383611996565b5050565b6000828152600b60205260409020600201546001600160a01b03163314610e135760405162461bcd60e51b815260040161055d906122dd565b6000828152600b6020526040902060020180546001600160a01b0319166001600160a01b038316179055610dd63382846114e6565b600a546001600160a01b03163314610ebb5760405162461bcd60e51b815260206004820152603060248201527f4f6e6c79206d61726b6574706c616365206f776e65722063616e20757064617460448201526f32903634b9ba34b73390383934b1b29760811b606482015260840161055d565b600955565b610eca33836113fd565b610ee65760405162461bcd60e51b815260040161055d9061236b565b610ef284848484611a65565b50505050565b6000818152600b6020526040902060038101546001909101546001600160a01b0316348214610f91576040805162461bcd60e51b81526020600482015260248101919091527f506c65617365207375626d6974207468652061736b696e67207072696365206960448201527f6e206f7264657220746f20636f6d706c65746520746865207075726368617365606482015260840161055d565b6000838152600b602052604090206002810180546001600160a01b0319908116331790915560048201805460ff1916600190811790915590910180549091169055610fe0600880546001019055565b610feb3033856114e6565b600a546009546040516001600160a01b039092169181156108fc0291906000818181858888f19350505050158015611027573d6000803e3d6000fd5b506040516001600160a01b038216903480156108fc02916000818181858888f19350505050158015610ef2573d6000803e3d6000fd5b606061106882611372565b6110ce5760405162461bcd60e51b815260206004820152603160248201527f45524337323155524953746f726167653a2055524920717565727920666f72206044820152703737b732bc34b9ba32b73a103a37b5b2b760791b606482015260840161055d565b600082815260066020526040812080546110e79061242b565b80601f01602080910402602001604051908101604052809291908181526020018280546111139061242b565b80156111605780601f1061113557610100808354040283529160200191611160565b820191906000526020600020905b81548152906001019060200180831161114357829003601f168201915b50505050509050600061117e60408051602081019091526000815290565b9050805160001415611191575092915050565b8151156111c35780826040516020016111ab929190612190565b60405160208183030381529060405292505050919050565b6111cc84611a98565b949350505050565b6000828152600b60205260409020600201546001600160a01b0316331461120d5760405162461bcd60e51b815260040161055d906122dd565b600954341461122e5760405162461bcd60e51b815260040161055d90612327565b6000828152600b6020526040902060048101805460ff19169055600381018290556001810180546001600160a01b03199081163317909155600290910180549091163017905561127e6008611b6f565b610dd63330846114e6565b6000818152600b60205260409020600201546001600160a01b0316301480156112e8575073e7f60f45d809927def26a295f777af8754dbe05e3314806112e857506000818152600b60205260409020600101546001600160a01b031633145b6113045760405162461bcd60e51b815260040161055d906122dd565b6000818152600b60205260409020600101546001600160a01b031661132d600880546001019055565b6000828152600b602052604090206001810180546001600160a01b0319908116909155600290910180549091166001600160a01b038316179055610dd63082846114e6565b6000908152600260205260409020546001600160a01b0316151590565b600081815260046020526040902080546001600160a01b0319166001600160a01b03841690811790915581906113c482610c7c565b6001600160a01b03167f8c5be1e5ebec7d5bd14f71427d1e84f3dd0314c0f7b2291e5b200ac8c7c3b92560405160405180910390a45050565b600061140882611372565b6114695760405162461bcd60e51b815260206004820152602c60248201527f4552433732313a206f70657261746f7220717565727920666f72206e6f6e657860448201526b34b9ba32b73a103a37b5b2b760a11b606482015260840161055d565b600061147483610c7c565b9050806001600160a01b0316846001600160a01b031614806114bb57506001600160a01b0380821660009081526005602090815260408083209388168352929052205460ff165b806111cc5750836001600160a01b03166114d4846104f5565b6001600160a01b031614949350505050565b826001600160a01b03166114f982610c7c565b6001600160a01b03161461155d5760405162461bcd60e51b815260206004820152602560248201527f4552433732313a207472616e736665722066726f6d20696e636f72726563742060448201526437bbb732b960d91b606482015260840161055d565b6001600160a01b0382166115bf5760405162461bcd60e51b8152602060048201526024808201527f4552433732313a207472616e7366657220746f20746865207a65726f206164646044820152637265737360e01b606482015260840161055d565b6115ca60008261138f565b6001600160a01b03831660009081526003602052604081208054600192906115f39084906123e8565b90915550506001600160a01b03821660009081526003602052604081208054600192906116219084906123bc565b909155505060008181526002602052604080822080546001600160a01b0319166001600160a01b0386811691821790925591518493918716917fddf252ad1be2c89b69c2b068fc378daa952ba7f163c4a11628f55a4df523b3ef91a4505050565b6001600160a01b0382166116d85760405162461bcd60e51b815260206004820181905260248201527f4552433732313a206d696e7420746f20746865207a65726f2061646472657373604482015260640161055d565b6116e181611372565b1561172e5760405162461bcd60e51b815260206004820152601c60248201527f4552433732313a20746f6b656e20616c7265616479206d696e74656400000000604482015260640161055d565b6001600160a01b03821660009081526003602052604081208054600192906117579084906123bc565b909155505060008181526002602052604080822080546001600160a01b0319166001600160a01b03861690811790915590518392907fddf252ad1be2c89b69c2b068fc378daa952ba7f163c4a11628f55a4df523b3ef908290a45050565b6117be82611372565b6118215760405162461bcd60e51b815260206004820152602e60248201527f45524337323155524953746f726167653a2055524920736574206f66206e6f6e60448201526d32bc34b9ba32b73a103a37b5b2b760911b606482015260840161055d565b6000828152600660209081526040909120825161069392840190611ded565b600081116118905760405162461bcd60e51b815260206004820152601c60248201527f5072696365206d757374206265206174206c6561737420312077656900000000604482015260640161055d565b60095434146118b15760405162461bcd60e51b815260040161055d90612327565b6040805160a08101825283815233602080830182815230848601818152606086018881526000608088018181528b8252600b909652979097209551865591516001860180546001600160a01b03199081166001600160a01b0393841617909155925160028701805490941691161790915593516003840155516004909201805460ff19169215159290921790915561194991846114e6565b604080513381523060208201529081018290526000606082015282907fb640004f1d14576d0c209e240cad0410e0d8c0c33a09375861fbadae2588a98d9060800160405180910390a25050565b816001600160a01b0316836001600160a01b031614156119f85760405162461bcd60e51b815260206004820152601960248201527f4552433732313a20617070726f766520746f2063616c6c657200000000000000604482015260640161055d565b6001600160a01b03838116600081815260056020908152604080832094871680845294825291829020805460ff191686151590811790915591519182527f17307eab39ab6107e8899845ad3d59bd9653f200f220920489ca2b5937696c31910160405180910390a3505050565b611a708484846114e6565b611a7c84848484611bc6565b610ef25760405162461bcd60e51b815260040161055d9061228b565b6060611aa382611372565b611b075760405162461bcd60e51b815260206004820152602f60248201527f4552433732314d657461646174613a2055524920717565727920666f72206e6f60448201526e3732bc34b9ba32b73a103a37b5b2b760891b606482015260840161055d565b6000611b1e60408051602081019091526000815290565b90506000815111611b3e5760405180602001604052806000815250610db5565b80611b4884611cd3565b604051602001611b59929190612190565b6040516020818303038152906040529392505050565b805480611bbe5760405162461bcd60e51b815260206004820152601b60248201527f436f756e7465723a2064656372656d656e74206f766572666c6f770000000000604482015260640161055d565b600019019055565b60006001600160a01b0384163b15611cc857604051630a85bd0160e11b81526001600160a01b0385169063150b7a0290611c0a9033908990889088906004016121bf565b602060405180830381600087803b158015611c2457600080fd5b505af1925050508015611c54575060408051601f3d908101601f19168201909252611c5191810190612097565b60015b611cae573d808015611c82576040519150601f19603f3d011682016040523d82523d6000602084013e611c87565b606091505b508051611ca65760405162461bcd60e51b815260040161055d9061228b565b805181602001fd5b6001600160e01b031916630a85bd0160e11b1490506111cc565b506001949350505050565b606081611cf75750506040805180820190915260018152600360fc1b602082015290565b8160005b8115611d215780611d0b81612466565b9150611d1a9050600a836123d4565b9150611cfb565b60008167ffffffffffffffff811115611d4a57634e487b7160e01b600052604160045260246000fd5b6040519080825280601f01601f191660200182016040528015611d74576020820181803683370190505b5090505b84156111cc57611d896001836123e8565b9150611d96600a86612481565b611da19060306123bc565b60f81b818381518110611dc457634e487b7160e01b600052603260045260246000fd5b60200101906001600160f81b031916908160001a905350611de6600a866123d4565b9450611d78565b828054611df99061242b565b90600052602060002090601f016020900481019282611e1b5760008555611e61565b82601f10611e3457805160ff1916838001178555611e61565b82800160010185558215611e61579182015b82811115611e61578251825591602001919060010190611e46565b50611e6d929150611e71565b5090565b5b80821115611e6d5760008155600101611e72565b600067ffffffffffffffff80841115611ea157611ea16124c1565b604051601f8501601f19908116603f01168101908282118183101715611ec957611ec96124c1565b81604052809350858152868686011115611ee257600080fd5b858560208301376000602087830101525050509392505050565b80356001600160a01b0381168114611f1357600080fd5b919050565b600060208284031215611f29578081fd5b610db582611efc565b60008060408385031215611f44578081fd5b611f4d83611efc565b9150611f5b60208401611efc565b90509250929050565b600080600060608486031215611f78578081fd5b611f8184611efc565b9250611f8f60208501611efc565b9150604084013590509250925092565b60008060008060808587031215611fb4578081fd5b611fbd85611efc565b9350611fcb60208601611efc565b925060408501359150606085013567ffffffffffffffff811115611fed578182fd5b8501601f81018713611ffd578182fd5b61200c87823560208401611e86565b91505092959194509250565b6000806040838503121561202a578182fd5b61203383611efc565b915060208301358015158114612047578182fd5b809150509250929050565b60008060408385031215612064578182fd5b61206d83611efc565b946020939093013593505050565b60006020828403121561208c578081fd5b8135610db5816124d7565b6000602082840312156120a8578081fd5b8151610db5816124d7565b600080604083850312156120c5578182fd5b823567ffffffffffffffff8111156120db578283fd5b8301601f810185136120eb578283fd5b6120fa85823560208401611e86565b95602094909401359450505050565b60006020828403121561211a578081fd5b5035919050565b60008060408385031215612133578182fd5b82359150611f5b60208401611efc565b60008060408385031215612155578182fd5b50508035926020909101359150565b6000815180845261217c8160208601602086016123ff565b601f01601f19169290920160200192915050565b600083516121a28184602088016123ff565b8351908301906121b68183602088016123ff565b01949350505050565b6001600160a01b03858116825284166020820152604081018390526080606082018190526000906121f290830184612164565b9695505050505050565b602080825282518282018190526000919060409081850190868401855b8281101561226b57815180518552868101516001600160a01b03908116888701528682015116868601526060808201519086015260809081015115159085015260a09093019290850190600101612219565b5091979650505050505050565b602081526000610db56020830184612164565b60208082526032908201527f4552433732313a207472616e7366657220746f206e6f6e20455243373231526560408201527131b2b4bb32b91034b6b83632b6b2b73a32b960711b606082015260800190565b6020808252602a908201527f4f6e6c79206974656d206f776e65722063616e20706572666f726d20746869736040820152691037b832b930ba34b7b760b11b606082015260800190565b60208082526024908201527f5072696365206d75737420626520657175616c20746f206c697374696e6720706040820152637269636560e01b606082015260800190565b60208082526031908201527f4552433732313a207472616e736665722063616c6c6572206973206e6f74206f6040820152701ddb995c881b9bdc88185c1c1c9bdd9959607a1b606082015260800190565b600082198211156123cf576123cf612495565b500190565b6000826123e3576123e36124ab565b500490565b6000828210156123fa576123fa612495565b500390565b60005b8381101561241a578181015183820152602001612402565b83811115610ef25750506000910152565b600181811c9082168061243f57607f821691505b6020821081141561246057634e487b7160e01b600052602260045260246000fd5b50919050565b600060001982141561247a5761247a612495565b5060010190565b600082612490576124906124ab565b500690565b634e487b7160e01b600052601160045260246000fd5b634e487b7160e01b600052601260045260246000fd5b634e487b7160e01b600052604160045260246000fd5b6001600160e01b0319811681146124ed57600080fd5b5056fea26469706673582212207bbd9fde28e2fc557a1dad392944ec5e7c5795bc91a86d455c7a47f9baf11e1f64736f6c63430008040033",
  "linkReferences": {},
  "deployedLinkReferences": {}
}